{
  "contractName": "Pong",
  "abi": [
    {
      "inputs": [],
      "payable": false,
      "stateMutability": "nonpayable",
      "type": "constructor"
    },
    {
      "anonymous": false,
      "inputs": [
        {
          "indexed": true,
          "name": "player",
          "type": "address"
        }
      ],
      "name": "CanPlayTheGame",
      "type": "event"
    },
    {
      "constant": false,
      "inputs": [],
      "name": "kill",
      "outputs": [],
      "payable": false,
      "stateMutability": "nonpayable",
      "type": "function"
    },
    {
      "constant": true,
      "inputs": [],
      "name": "howManytimesPlayed",
      "outputs": [
        {
          "name": "",
          "type": "uint256"
        }
      ],
      "payable": false,
      "stateMutability": "view",
      "type": "function"
    },
    {
      "constant": false,
      "inputs": [],
      "name": "play",
      "outputs": [],
      "payable": true,
      "stateMutability": "payable",
      "type": "function"
    }
  ],
  "bytecode": "0x608060405234801561001057600080fd5b50336000806101000a81548173ffffffffffffffffffffffffffffffffffffffff021916908373ffffffffffffffffffffffffffffffffffffffff1602179055506000600181905550610246806100686000396000f300608060405260043610610057576000357c0100000000000000000000000000000000000000000000000000000000900463ffffffff16806311713df21461005c57806341c0e1b51461008757806393e84cd91461009e575b600080fd5b34801561006857600080fd5b506100716100a8565b6040518082815260200191505060405180910390f35b34801561009357600080fd5b5061009c6100b2565b005b6100a6610147565b005b6000600154905090565b6000809054906101000a900473ffffffffffffffffffffffffffffffffffffffff1673ffffffffffffffffffffffffffffffffffffffff163373ffffffffffffffffffffffffffffffffffffffff1614151561010d57600080fd5b6000809054906101000a900473ffffffffffffffffffffffffffffffffffffffff1673ffffffffffffffffffffffffffffffffffffffff16ff5b670de0b6b3a76400003414151561015d57600080fd5b6000809054906101000a900473ffffffffffffffffffffffffffffffffffffffff1673ffffffffffffffffffffffffffffffffffffffff166108fc349081150290604051600060405180830381858888f193505050501580156101c4573d6000803e3d6000fd5b50600180600082825401925050819055503373ffffffffffffffffffffffffffffffffffffffff167fa75916785ed274ade409b333cb54e33f4d515761c89b45c54ba3d9d944b109c960405160405180910390a25600a165627a7a72305820cc407087701b513237584fca8eaef984eb2d5cdc4fb55ec2d7d33a1f83e9f5480029",
  "source": "/*\n * -----------------------------------------------------------------------------------\n * \"THE BEER-WARE LICENSE\" (Revision 42):\n * <miguel.astor@ciens.ucv.ve> wrote this file. As long as you retain this notice you\n * can do whatever you want with this stuff. If we meet some day, and you think\n * this stuff is worth it, you can buy me a beer in return. Miguel Angel Astor\n * -----------------------------------------------------------------------------------\n */\n\npragma solidity ^0.4.24;\n\nimport \"./Ownable.sol\";\n\ncontract Pong is Ownable {\n  uint256 timesPlayed;\n\n  event CanPlayTheGame(address indexed player);\n  \n  constructor() public {\n    timesPlayed = 0;\n  }\n  \n  function kill() public onlyOwner {\n    selfdestruct(owner);\n  }\n\n  function howManytimesPlayed() public view returns (uint256) {\n    return timesPlayed;\n  }\n  \n  function play() payable public {\n    require(msg.value == 1000000000000000000);\n    owner.transfer(msg.value);\n    timesPlayed += 1;\n    emit CanPlayTheGame(msg.sender);\n  }\n}\n",
  "sourcePath": "/home/miky/Documentos/Game/contracts/Pong.sol",
  "compiler": {
    "name": "solc",
    "version": "0.4.24+commit.e67f0147.Emscripten.clang"
  },
  "schemaVersion": "2.0.1",
  "updatedAt": "2018-10-31T09:33:41.904Z"
}